{
  "contractName": "Borrow",
  "abi": [
    {
      "inputs": [
        {
          "internalType": "address",
          "name": "_stacking",
          "type": "address"
        },
        {
          "internalType": "address",
          "name": "_proxySimple",
          "type": "address"
        }
      ],
      "stateMutability": "nonpayable",
      "type": "constructor"
    },
    {
      "anonymous": false,
      "inputs": [
        {
          "indexed": false,
          "internalType": "address[]",
          "name": "soliAddress",
          "type": "address[]"
        }
      ],
      "name": "EntityRegistered",
      "type": "event"
    },
    {
      "anonymous": false,
      "inputs": [
        {
          "indexed": true,
          "internalType": "address",
          "name": "previousOwner",
          "type": "address"
        },
        {
          "indexed": true,
          "internalType": "address",
          "name": "newOwner",
          "type": "address"
        }
      ],
      "name": "OwnershipTransferred",
      "type": "event"
    },
    {
      "anonymous": false,
      "inputs": [],
      "name": "ProposalsRegistrationEnded",
      "type": "event"
    },
    {
      "anonymous": false,
      "inputs": [],
      "name": "ProposalsRegistrationStarted",
      "type": "event"
    },
    {
      "anonymous": false,
      "inputs": [
        {
          "indexed": false,
          "internalType": "address",
          "name": "entity",
          "type": "address"
        },
        {
          "indexed": false,
          "internalType": "uint16",
          "name": "loanRequestId",
          "type": "uint16"
        }
      ],
      "name": "Voted",
      "type": "event"
    },
    {
      "anonymous": false,
      "inputs": [],
      "name": "VotesTallied",
      "type": "event"
    },
    {
      "anonymous": false,
      "inputs": [],
      "name": "VotingSessionEnded",
      "type": "event"
    },
    {
      "anonymous": false,
      "inputs": [],
      "name": "VotingSessionStarted",
      "type": "event"
    },
    {
      "anonymous": false,
      "inputs": [
        {
          "indexed": false,
          "internalType": "enum Borrow.WorkflowStatus",
          "name": "previousStatus",
          "type": "uint8"
        },
        {
          "indexed": false,
          "internalType": "enum Borrow.WorkflowStatus",
          "name": "newStatus",
          "type": "uint8"
        }
      ],
      "name": "WorkflowStatusChange",
      "type": "event"
    },
    {
      "anonymous": false,
      "inputs": [
        {
          "indexed": false,
          "internalType": "address",
          "name": "receiver",
          "type": "address"
        }
      ],
      "name": "receiverAddressUpdated",
      "type": "event"
    },
    {
      "inputs": [
        {
          "internalType": "uint256",
          "name": "",
          "type": "uint256"
        }
      ],
      "name": "loans",
      "outputs": [
        {
          "internalType": "string",
          "name": "description",
          "type": "string"
        },
        {
          "internalType": "uint256",
          "name": "voteCount",
          "type": "uint256"
        },
        {
          "internalType": "address",
          "name": "receiver",
          "type": "address"
        }
      ],
      "stateMutability": "view",
      "type": "function",
      "constant": true
    },
    {
      "inputs": [],
      "name": "owner",
      "outputs": [
        {
          "internalType": "address",
          "name": "",
          "type": "address"
        }
      ],
      "stateMutability": "view",
      "type": "function",
      "constant": true
    },
    {
      "inputs": [],
      "name": "proxySimple",
      "outputs": [
        {
          "internalType": "address",
          "name": "",
          "type": "address"
        }
      ],
      "stateMutability": "view",
      "type": "function",
      "constant": true
    },
    {
      "inputs": [],
      "name": "renounceOwnership",
      "outputs": [],
      "stateMutability": "nonpayable",
      "type": "function"
    },
    {
      "inputs": [],
      "name": "stacking",
      "outputs": [
        {
          "internalType": "address",
          "name": "",
          "type": "address"
        }
      ],
      "stateMutability": "view",
      "type": "function",
      "constant": true
    },
    {
      "inputs": [],
      "name": "status",
      "outputs": [
        {
          "internalType": "enum Borrow.WorkflowStatus",
          "name": "",
          "type": "uint8"
        }
      ],
      "stateMutability": "view",
      "type": "function",
      "constant": true
    },
    {
      "inputs": [
        {
          "internalType": "address",
          "name": "newOwner",
          "type": "address"
        }
      ],
      "name": "transferOwnership",
      "outputs": [],
      "stateMutability": "nonpayable",
      "type": "function"
    },
    {
      "inputs": [
        {
          "internalType": "address",
          "name": "",
          "type": "address"
        }
      ],
      "name": "voters",
      "outputs": [
        {
          "internalType": "bool",
          "name": "isRegistered",
          "type": "bool"
        },
        {
          "internalType": "bool",
          "name": "hasVoted",
          "type": "bool"
        },
        {
          "internalType": "uint256",
          "name": "votingPower",
          "type": "uint256"
        },
        {
          "internalType": "uint16",
          "name": "proposalId",
          "type": "uint16"
        }
      ],
      "stateMutability": "view",
      "type": "function",
      "constant": true
    },
    {
      "inputs": [
        {
          "internalType": "string",
          "name": "_description",
          "type": "string"
        },
        {
          "internalType": "address",
          "name": "receiver",
          "type": "address"
        }
      ],
      "name": "registerLoanRequest",
      "outputs": [],
      "stateMutability": "nonpayable",
      "type": "function"
    },
    {
      "inputs": [],
      "name": "setEntity",
      "outputs": [],
      "stateMutability": "nonpayable",
      "type": "function"
    },
    {
      "inputs": [
        {
          "internalType": "uint16",
          "name": "_proposalId",
          "type": "uint16"
        }
      ],
      "name": "addVote",
      "outputs": [],
      "stateMutability": "nonpayable",
      "type": "function"
    },
    {
      "inputs": [
        {
          "internalType": "address",
          "name": "voter",
          "type": "address"
        }
      ],
      "name": "getVotersPower",
      "outputs": [
        {
          "internalType": "uint256",
          "name": "votingPower",
          "type": "uint256"
        }
      ],
      "stateMutability": "view",
      "type": "function",
      "constant": true
    },
    {
      "inputs": [
        {
          "internalType": "address",
          "name": "voter",
          "type": "address"
        }
      ],
      "name": "getVotersProp",
      "outputs": [
        {
          "internalType": "uint256",
          "name": "proposalId",
          "type": "uint256"
        }
      ],
      "stateMutability": "view",
      "type": "function",
      "constant": true
    },
    {
      "inputs": [],
      "name": "getWinningProposal",
      "outputs": [
        {
          "internalType": "uint16",
          "name": "_proposalId",
          "type": "uint16"
        }
      ],
      "stateMutability": "nonpayable",
      "type": "function"
    },
    {
      "inputs": [],
      "name": "nextStep",
      "outputs": [],
      "stateMutability": "nonpayable",
      "type": "function"
    },
    {
      "inputs": [],
      "name": "getWinningProposalId",
      "outputs": [
        {
          "internalType": "uint16",
          "name": "",
          "type": "uint16"
        }
      ],
      "stateMutability": "view",
      "type": "function",
      "constant": true
    },
    {
      "inputs": [],
      "name": "getReceiverAddress",
      "outputs": [
        {
          "internalType": "address",
          "name": "",
          "type": "address"
        }
      ],
      "stateMutability": "view",
      "type": "function",
      "constant": true
    }
  ],
  "bytecode": "0x60806040523480156200001157600080fd5b50604051620025c6380380620025c6833981810160405281019062000037919062000248565b6000620000496200020060201b60201c565b9050806000806101000a81548173ffffffffffffffffffffffffffffffffffffffff021916908373ffffffffffffffffffffffffffffffffffffffff1602179055508073ffffffffffffffffffffffffffffffffffffffff16600073ffffffffffffffffffffffffffffffffffffffff167f8be0079c531659141344cd1fd0a4f28419497f9722a3daafe3b4186f6b6457e060405160405180910390a350620000f76200020060201b60201c565b73ffffffffffffffffffffffffffffffffffffffff166200011d6200020860201b60201c565b73ffffffffffffffffffffffffffffffffffffffff161462000176576040517f08c379a00000000000000000000000000000000000000000000000000000000081526004016200016d90620002cb565b60405180910390fd5b81600260006101000a81548173ffffffffffffffffffffffffffffffffffffffff021916908373ffffffffffffffffffffffffffffffffffffffff16021790555080600160006101000a81548173ffffffffffffffffffffffffffffffffffffffff021916908373ffffffffffffffffffffffffffffffffffffffff16021790555050506200034c565b600033905090565b60008060009054906101000a900473ffffffffffffffffffffffffffffffffffffffff16905090565b600081519050620002428162000332565b92915050565b600080604083850312156200025c57600080fd5b60006200026c8582860162000231565b92505060206200027f8582860162000231565b9150509250929050565b600062000298602083620002ed565b91507f4f776e61626c653a2063616c6c6572206973206e6f7420746865206f776e65726000830152602082019050919050565b60006020820190508181036000830152620002e68162000289565b9050919050565b600082825260208201905092915050565b60006200030b8262000312565b9050919050565b600073ffffffffffffffffffffffffffffffffffffffff82169050919050565b6200033d81620002fe565b81146200034957600080fd5b50565b61226a806200035c6000396000f3fe608060405234801561001057600080fd5b506004361061010a5760003560e01c8063a3ec138d116100a2578063c900072611610071578063c900072614610298578063cd5e4137146102a2578063e1ec3c68146102ac578063e81e977b146102de578063f2fde38b146102fc5761010a565b8063a3ec138d1461020b578063a51346201461023e578063b3cc6bee1461025c578063c62bfd8f1461027a5761010a565b8063863b85bf116100de578063863b85bf146101855780638da5cb5b146101a15780638e0a8852146101bf5780639c4e4d50146101ef5761010a565b8062c0fd671461010f578063200d2ed21461013f578063531ebce51461015d578063715018a61461017b575b600080fd5b610129600480360381019061012491906119ee565b610318565b6040516101369190611fed565b60405180910390f35b610147610364565b6040516101549190611e90565b60405180910390f35b610165610377565b6040516101729190611de5565b60405180910390f35b6101836103a1565b005b61019f600480360381019061019a9190611aac565b6104dc565b005b6101a96107fb565b6040516101b69190611de5565b60405180910390f35b6101d960048036038101906101d491906119ee565b610824565b6040516101e69190611fed565b60405180910390f35b61020960048036038101906102049190611a58565b610882565b005b610225600480360381019061022091906119ee565b610a43565b6040516102359493929190611e4b565b60405180910390f35b610246610a9b565b6040516102539190611fd2565b60405180910390f35b610264610dd3565b6040516102719190611de5565b60405180910390f35b610282610df9565b60405161028f9190611de5565b60405180910390f35b6102a0610e1f565b005b6102aa61118e565b005b6102c660048036038101906102c19190611ad5565b6114c4565b6040516102d593929190611ed4565b60405180910390f35b6102e66115b3565b6040516102f39190611fd2565b60405180910390f35b610316600480360381019061031191906119ee565b6115cb565b005b6000600560008373ffffffffffffffffffffffffffffffffffffffff1673ffffffffffffffffffffffffffffffffffffffff168152602001908152602001600020600101549050919050565b600060149054906101000a900460ff1681565b6000600460009054906101000a900473ffffffffffffffffffffffffffffffffffffffff16905090565b6103a9611775565b73ffffffffffffffffffffffffffffffffffffffff166103c76107fb565b73ffffffffffffffffffffffffffffffffffffffff161461041d576040517f08c379a000000000000000000000000000000000000000000000000000000000815260040161041490611f92565b60405180910390fd5b600073ffffffffffffffffffffffffffffffffffffffff166000809054906101000a900473ffffffffffffffffffffffffffffffffffffffff1673ffffffffffffffffffffffffffffffffffffffff167f8be0079c531659141344cd1fd0a4f28419497f9722a3daafe3b4186f6b6457e060405160405180910390a360008060006101000a81548173ffffffffffffffffffffffffffffffffffffffff021916908373ffffffffffffffffffffffffffffffffffffffff160217905550565b60011515600560003373ffffffffffffffffffffffffffffffffffffffff1673ffffffffffffffffffffffffffffffffffffffff16815260200190815260200160002060000160009054906101000a900460ff16151514610572576040517f08c379a000000000000000000000000000000000000000000000000000000000815260040161056990611fb2565b60405180910390fd5b6003600581111561057f57fe5b600060149054906101000a900460ff16600581111561059a57fe5b146105da576040517f08c379a00000000000000000000000000000000000000000000000000000000081526004016105d190611f72565b60405180910390fd5b600560003373ffffffffffffffffffffffffffffffffffffffff1673ffffffffffffffffffffffffffffffffffffffff16815260200190815260200160002060000160019054906101000a900460ff161561066a576040517f08c379a000000000000000000000000000000000000000000000000000000000815260040161066190611f52565b60405180910390fd5b6001600560003373ffffffffffffffffffffffffffffffffffffffff1673ffffffffffffffffffffffffffffffffffffffff16815260200190815260200160002060000160016101000a81548160ff02191690831515021790555080600560003373ffffffffffffffffffffffffffffffffffffffff1673ffffffffffffffffffffffffffffffffffffffff16815260200190815260200160002060020160006101000a81548161ffff021916908361ffff1602179055507f2941e36a18e27644e8ea10bad396659ac866fd7a18a75015d088fc148e24d8543382604051610753929190611e00565b60405180910390a16107d2600560003373ffffffffffffffffffffffffffffffffffffffff1673ffffffffffffffffffffffffffffffffffffffff1681526020019081526020016000206001015460068361ffff16815481106107b257fe5b90600052602060002090600302016001015461177d90919063ffffffff16565b60068261ffff16815481106107e357fe5b90600052602060002090600302016001018190555050565b60008060009054906101000a900473ffffffffffffffffffffffffffffffffffffffff16905090565b6000600560008373ffffffffffffffffffffffffffffffffffffffff1673ffffffffffffffffffffffffffffffffffffffff16815260200190815260200160002060020160009054906101000a900461ffff1661ffff169050919050565b61088a611775565b73ffffffffffffffffffffffffffffffffffffffff166108a86107fb565b73ffffffffffffffffffffffffffffffffffffffff16146108fe576040517f08c379a00000000000000000000000000000000000000000000000000000000081526004016108f590611f92565b60405180910390fd5b6001600581111561090b57fe5b600060149054906101000a900460ff16600581111561092657fe5b14610966576040517f08c379a000000000000000000000000000000000000000000000000000000000815260040161095d90611f72565b60405180910390fd5b61096e6117d2565b6040518060600160405280848152602001600081526020018373ffffffffffffffffffffffffffffffffffffffff168152509050600681908060018154018082558091505060019003906000526020600020906003020160009091909190915060008201518160000190805190602001906109ea929190611809565b506020820151816001015560408201518160020160006101000a81548173ffffffffffffffffffffffffffffffffffffffff021916908373ffffffffffffffffffffffffffffffffffffffff1602179055505050505050565b60056020528060005260406000206000915090508060000160009054906101000a900460ff16908060000160019054906101000a900460ff16908060010154908060020160009054906101000a900461ffff16905084565b6000610aa5611775565b73ffffffffffffffffffffffffffffffffffffffff16610ac36107fb565b73ffffffffffffffffffffffffffffffffffffffff1614610b19576040517f08c379a0000000000000000000000000000000000000000000000000000000008152600401610b1090611f92565b60405180910390fd5b60046005811115610b2657fe5b600060149054906101000a900460ff166005811115610b4157fe5b14610b81576040517f08c379a0000000000000000000000000000000000000000000000000000000008152600401610b7890611f72565b60405180910390fd5b6000809050600080905060005b6006805490508161ffff161015610c36578260068261ffff1681548110610bb157fe5b9060005260206000209060030201600101541115610bf65760068161ffff1681548110610bda57fe5b9060005260206000209060030201600101549250809350610c29565b8260068261ffff1681548110610c0857fe5b9060005260206000209060030201600101541415610c28578061ffff1691505b5b8080600101915050610b8e565b5082600360146101000a81548161ffff021916908361ffff16021790555060068181548110610c6157fe5b906000526020600020906003020160010154821415610cfc576000600360146101000a81548161ffff021916908361ffff160217905550600260009054906101000a900473ffffffffffffffffffffffffffffffffffffffff16600460006101000a81548173ffffffffffffffffffffffffffffffffffffffff021916908373ffffffffffffffffffffffffffffffffffffffff1602179055505b7f0e5e95ff8725ab3e7a4b6b59998a4c344c2aa8d1485f5e60cb7f337768e6134760405160405180910390a16006600360149054906101000a900461ffff1661ffff1681548110610d4957fe5b906000526020600020906003020160020160009054906101000a900473ffffffffffffffffffffffffffffffffffffffff16600460006101000a81548173ffffffffffffffffffffffffffffffffffffffff021916908373ffffffffffffffffffffffffffffffffffffffff160217905550600360149054906101000a900461ffff169250505090565b600360009054906101000a900473ffffffffffffffffffffffffffffffffffffffff1681565b600260009054906101000a900473ffffffffffffffffffffffffffffffffffffffff1681565b610e27611775565b73ffffffffffffffffffffffffffffffffffffffff16610e456107fb565b73ffffffffffffffffffffffffffffffffffffffff1614610e9b576040517f08c379a0000000000000000000000000000000000000000000000000000000008152600401610e9290611f92565b60405180910390fd5b60008060149054906101000a900460ff16905060006005811115610ebb57fe5b600060149054906101000a900460ff166005811115610ed657fe5b1415610f92576001600060146101000a81548160ff02191690836005811115610efb57fe5b0217905550610f616040518060400160405280601b81526020017f6e6f6e65206f6620666f6c6c6f77696e672070726f706f73616c730000000000815250600260009054906101000a900473ffffffffffffffffffffffffffffffffffffffff16610882565b7f344c25562921d075a298d34b6dd1fd00d36ff293974539dfd4a8c625d9f0064c60405160405180910390a1611143565b60016005811115610f9f57fe5b600060149054906101000a900460ff166005811115610fba57fe5b1415611015576002600060146101000a81548160ff02191690836005811115610fdf57fe5b02179055507f240cb87b2e4df4c318e72bd714d45a9cad60249e883ff56b1fffd83a4595a8fa60405160405180910390a1611142565b6002600581111561102257fe5b600060149054906101000a900460ff16600581111561103d57fe5b1415611098576003600060146101000a81548160ff0219169083600581111561106257fe5b02179055507f1b8e19a458c1bcd88553332c518cc5c4e2d5793e712ee766d4f1c14f672ef1f560405160405180910390a1611141565b600360058111156110a557fe5b600060149054906101000a900460ff1660058111156110c057fe5b141561111b576004600060146101000a81548160ff021916908360058111156110e557fe5b02179055507fc379d349a6301baf50fb2f98d829f4ae10b1cdb7c66f4e4d8117302df7b8cd4c60405160405180910390a1611140565b6005600060146101000a81548160ff0219169083600581111561113a57fe5b02179055505b5b5b5b7f0a97a4ee45751e2abf3e4fc8946939630b11b371ea8ae39ccdc3056e98f5cc3f81600060149054906101000a900460ff16604051611183929190611eab565b60405180910390a150565b611196611775565b73ffffffffffffffffffffffffffffffffffffffff166111b46107fb565b73ffffffffffffffffffffffffffffffffffffffff161461120a576040517f08c379a000000000000000000000000000000000000000000000000000000000815260040161120190611f92565b60405180910390fd5b6060600160009054906101000a900473ffffffffffffffffffffffffffffffffffffffff1673ffffffffffffffffffffffffffffffffffffffff16636c8751a86040518163ffffffff1660e01b815260040160006040518083038186803b15801561127457600080fd5b505afa158015611288573d6000803e3d6000fd5b505050506040513d6000823e3d601f19601f820116820180604052508101906112b19190611a17565b905060005b81518161ffff161015611489576000828261ffff16815181106112d557fe5b602002602001015190506040518060800160405280600115158152602001600015158152602001600160009054906101000a900473ffffffffffffffffffffffffffffffffffffffff1673ffffffffffffffffffffffffffffffffffffffff16632a5bf6d2868661ffff168151811061134a57fe5b60200260200101516040518263ffffffff1660e01b815260040161136e9190611de5565b60206040518083038186803b15801561138657600080fd5b505afa15801561139a573d6000803e3d6000fd5b505050506040513d601f19601f820116820180604052508101906113be9190611afe565b8152602001600061ffff16815250600560008373ffffffffffffffffffffffffffffffffffffffff1673ffffffffffffffffffffffffffffffffffffffff16815260200190815260200160002060008201518160000160006101000a81548160ff02191690831515021790555060208201518160000160016101000a81548160ff0219169083151502179055506040820151816001015560608201518160020160006101000a81548161ffff021916908361ffff1602179055509050505080806001019150506112b6565b507f8ef2f85f6f41542a256e6350fd173692359028ad0ac8482349d118ceee88cea6816040516114b99190611e29565b60405180910390a150565b600681815481106114d157fe5b9060005260206000209060030201600091509050806000018054600181600116156101000203166002900480601f01602080910402602001604051908101604052809291908181526020018280546001816001161561010002031660029004801561157d5780601f106115525761010080835404028352916020019161157d565b820191906000526020600020905b81548152906001019060200180831161156057829003601f168201915b5050505050908060010154908060020160009054906101000a900473ffffffffffffffffffffffffffffffffffffffff16905083565b6000600360149054906101000a900461ffff16905090565b6115d3611775565b73ffffffffffffffffffffffffffffffffffffffff166115f16107fb565b73ffffffffffffffffffffffffffffffffffffffff1614611647576040517f08c379a000000000000000000000000000000000000000000000000000000000815260040161163e90611f92565b60405180910390fd5b600073ffffffffffffffffffffffffffffffffffffffff168173ffffffffffffffffffffffffffffffffffffffff1614156116b7576040517f08c379a00000000000000000000000000000000000000000000000000000000081526004016116ae90611f12565b60405180910390fd5b8073ffffffffffffffffffffffffffffffffffffffff166000809054906101000a900473ffffffffffffffffffffffffffffffffffffffff1673ffffffffffffffffffffffffffffffffffffffff167f8be0079c531659141344cd1fd0a4f28419497f9722a3daafe3b4186f6b6457e060405160405180910390a3806000806101000a81548173ffffffffffffffffffffffffffffffffffffffff021916908373ffffffffffffffffffffffffffffffffffffffff16021790555050565b600033905090565b6000808284019050838110156117c8576040517f08c379a00000000000000000000000000000000000000000000000000000000081526004016117bf90611f32565b60405180910390fd5b8091505092915050565b60405180606001604052806060815260200160008152602001600073ffffffffffffffffffffffffffffffffffffffff1681525090565b828054600181600116156101000203166002900490600052602060002090601f016020900481019282601f1061184a57805160ff1916838001178555611878565b82800160010185558215611878579182015b8281111561187757825182559160200191906001019061185c565b5b5090506118859190611889565b5090565b6118ab91905b808211156118a757600081600090555060010161188f565b5090565b90565b6000813590506118bd816121ef565b92915050565b6000815190506118d2816121ef565b92915050565b600082601f8301126118e957600080fd5b81516118fc6118f782612035565b612008565b9150818183526020840193506020810190508385602084028201111561192157600080fd5b60005b83811015611951578161193788826118c3565b845260208401935060208301925050600181019050611924565b5050505092915050565b600082601f83011261196c57600080fd5b813561197f61197a8261205d565b612008565b9150808252602083016020830185838301111561199b57600080fd5b6119a683828461218f565b50505092915050565b6000813590506119be81612206565b92915050565b6000813590506119d38161221d565b92915050565b6000815190506119e88161221d565b92915050565b600060208284031215611a0057600080fd5b6000611a0e848285016118ae565b91505092915050565b600060208284031215611a2957600080fd5b600082015167ffffffffffffffff811115611a4357600080fd5b611a4f848285016118d8565b91505092915050565b60008060408385031215611a6b57600080fd5b600083013567ffffffffffffffff811115611a8557600080fd5b611a918582860161195b565b9250506020611aa2858286016118ae565b9150509250929050565b600060208284031215611abe57600080fd5b6000611acc848285016119af565b91505092915050565b600060208284031215611ae757600080fd5b6000611af5848285016119c4565b91505092915050565b600060208284031215611b1057600080fd5b6000611b1e848285016119d9565b91505092915050565b6000611b338383611b4e565b60208301905092915050565b611b4881612147565b82525050565b611b57816120de565b82525050565b611b66816120de565b82525050565b6000611b7782612099565b611b8181856120bc565b9350611b8c83612089565b8060005b83811015611bbd578151611ba48882611b27565b9750611baf836120af565b925050600181019050611b90565b5085935050505092915050565b611bd3816120f0565b82525050565b611be281612159565b82525050565b6000611bf3826120a4565b611bfd81856120cd565b9350611c0d81856020860161219e565b611c16816121d1565b840191505092915050565b6000611c2e6026836120cd565b91507f4f776e61626c653a206e6577206f776e657220697320746865207a65726f206160008301527f64647265737300000000000000000000000000000000000000000000000000006020830152604082019050919050565b6000611c94601b836120cd565b91507f536166654d6174683a206164646974696f6e206f766572666c6f7700000000006000830152602082019050919050565b6000611cd4600d836120cd565b91507f416c726561647920766f746564000000000000000000000000000000000000006000830152602082019050919050565b6000611d14600b836120cd565b91507f4e6f7420616c6c6f7765640000000000000000000000000000000000000000006000830152602082019050919050565b6000611d546020836120cd565b91507f4f776e61626c653a2063616c6c6572206973206e6f7420746865206f776e65726000830152602082019050919050565b6000611d94600b836120cd565b91507f756e7265676973747265640000000000000000000000000000000000000000006000830152602082019050919050565b611dd08161210f565b82525050565b611ddf8161213d565b82525050565b6000602082019050611dfa6000830184611b5d565b92915050565b6000604082019050611e156000830185611b3f565b611e226020830184611dc7565b9392505050565b60006020820190508181036000830152611e438184611b6c565b905092915050565b6000608082019050611e606000830187611bca565b611e6d6020830186611bca565b611e7a6040830185611dd6565b611e876060830184611dc7565b95945050505050565b6000602082019050611ea56000830184611bd9565b92915050565b6000604082019050611ec06000830185611bd9565b611ecd6020830184611bd9565b9392505050565b60006060820190508181036000830152611eee8186611be8565b9050611efd6020830185611dd6565b611f0a6040830184611b5d565b949350505050565b60006020820190508181036000830152611f2b81611c21565b9050919050565b60006020820190508181036000830152611f4b81611c87565b9050919050565b60006020820190508181036000830152611f6b81611cc7565b9050919050565b60006020820190508181036000830152611f8b81611d07565b9050919050565b60006020820190508181036000830152611fab81611d47565b9050919050565b60006020820190508181036000830152611fcb81611d87565b9050919050565b6000602082019050611fe76000830184611dc7565b92915050565b60006020820190506120026000830184611dd6565b92915050565b6000604051905081810181811067ffffffffffffffff8211171561202b57600080fd5b8060405250919050565b600067ffffffffffffffff82111561204c57600080fd5b602082029050602081019050919050565b600067ffffffffffffffff82111561207457600080fd5b601f19601f8301169050602081019050919050565b6000819050602082019050919050565b600081519050919050565b600081519050919050565b6000602082019050919050565b600082825260208201905092915050565b600082825260208201905092915050565b60006120e98261211d565b9050919050565b60008115159050919050565b600081905061210a826121e2565b919050565b600061ffff82169050919050565b600073ffffffffffffffffffffffffffffffffffffffff82169050919050565b6000819050919050565b60006121528261216b565b9050919050565b6000612164826120fc565b9050919050565b60006121768261217d565b9050919050565b60006121888261211d565b9050919050565b82818337600083830152505050565b60005b838110156121bc5780820151818401526020810190506121a1565b838111156121cb576000848401525b50505050565b6000601f19601f8301169050919050565b600681106121ec57fe5b50565b6121f8816120de565b811461220357600080fd5b50565b61220f8161210f565b811461221a57600080fd5b50565b6122268161213d565b811461223157600080fd5b5056fea26469706673582212204217d1cee538eab11742d9db8215a6848526dc2a9a8589fafff6a21de5dbf34c64736f6c634300060b0033",
  "immutableReferences": {},
  "source": "// SPDX-License-Identifier: MIT\r\npragma solidity 0.6.11;\r\npragma experimental ABIEncoderV2;\r\nimport \"@openzeppelin/contracts/access/Ownable.sol\";\r\nimport \"@openzeppelin/contracts/math/SafeMath.sol\";\r\nimport \"./interfaces/IProxy.sol\";\r\n\r\n/// @title A contract for the management of votes\r\n/// @dev The contract can still be improved\r\ncontract Borrow is Ownable{\r\n    using SafeMath for uint;\r\n\r\n\r\n//Enum\r\n    enum WorkflowStatus {\r\n        RegisteringEntities,\r\n        LoanRequestStarted,\r\n        LoanRequestEnded,\r\n        VotingSessionStarted,\r\n        VotingSessionEnded,\r\n        VotesTallied\r\n    }\r\n\r\n//Struct\r\n    struct Voter {\r\n        bool isRegistered;\r\n        bool hasVoted;\r\n        uint votingPower;\r\n        uint16 proposalId;\r\n    }\r\n\r\n\r\n    struct LoanRequest {\r\n        string description;\r\n        uint voteCount;\r\n        address receiver;\r\n  //      uint amountRequest;\r\n  //      bool state;\r\n    }\r\n\r\n//Variable\r\n\r\n//    bool borrowOpen;\r\n    WorkflowStatus public status;\r\n    IProxy proxy;\r\n    address public stacking;\r\n    address public proxySimple;\r\n    uint16 winningProposalId;\r\n    address receiverAddress;\r\n\r\n\r\n//Mapping\r\n    mapping(address => Voter) public voters;\r\n    /* mapping(address => uint) public debts;\r\n    mapping(uint => address) public borrowers; // LoanRequest est un struct */\r\n\r\n//Tableau\r\n    LoanRequest[] public loans;\r\n\r\n//Event\r\n    event EntityRegistered(address[] soliAddress);\r\n    event ProposalsRegistrationStarted();\r\n    event ProposalsRegistrationEnded();\r\n    event VotingSessionStarted();\r\n    event VotingSessionEnded();\r\n    event Voted(address entity, uint16 loanRequestId);\r\n    event VotesTallied();\r\n    event WorkflowStatusChange(WorkflowStatus previousStatus, WorkflowStatus newStatus);\r\n    event receiverAddressUpdated(address receiver);\r\n\r\n\r\n//Constructor\r\n    constructor(address _stacking, address _proxySimple) public onlyOwner{\r\n        stacking=_stacking;\r\n        proxy = IProxy(_proxySimple);\r\n\r\n    }\r\n\r\n\r\n    modifier isRegistred {\r\n      require(voters[msg.sender].isRegistered == true, \"unregistred\");\r\n      _;\r\n    }\r\n\r\n\r\n\r\n    /// @param _description receiver description of the project to fund and it address\r\n    function registerLoanRequest(string memory _description, address receiver) public onlyOwner {\r\n        require(status == WorkflowStatus.LoanRequestStarted, \"Not allowed\");\r\n        LoanRequest memory loanR = LoanRequest(_description, 0, receiver);\r\n        loans.push(loanR);\r\n    }\r\n\r\n    /// @notice Records the addresses of participants\r\n    /// @dev Copy the array of users to the proxy, Error with Client call in ProxySimple.sol\r\n    function setEntity() public onlyOwner {\r\n      address[] memory copyTab = proxy.getAdrClients();\r\n\r\n        for(uint16 i; i < copyTab.length; i++) {\r\n          address _address = copyTab[i];\r\n           voters[_address] = Voter(true,false,proxy.getUserDeposits(copyTab[i]),0);\r\n          }\r\n          emit EntityRegistered(copyTab);\r\n        }\r\n\r\n\r\n\r\n    /// @notice Function to vote, Id 0 for blank vote\r\n    /// @dev For the moment we only vote once\r\n    /// @param _proposalId Proxy address\r\n    function addVote(uint16 _proposalId) external isRegistred {\r\n        require(status == WorkflowStatus.VotingSessionStarted,\"Not allowed\");\r\n        require(!voters[msg.sender].hasVoted, \"Already voted\");\r\n\r\n        voters[msg.sender].hasVoted = true;\r\n        voters[msg.sender].proposalId = _proposalId;\r\n\r\n        emit Voted(msg.sender, _proposalId);\r\n\r\n        loans[_proposalId].voteCount = loans[_proposalId].voteCount.add(voters[msg.sender].votingPower);\r\n    }\r\n\r\n  //function borrowMode\r\n\r\n\r\n\r\n    /* function okLoans(uint _loanRequestId) external onlyOwner {\r\n        //require (borrowOpen == true);\r\n        require(status == WorkflowStatus.VotingSessionEnded, \"Not allowed\");\r\n        //require(voteCount>((votingPowerTotal/2),\"pas assez de vote pour vous\");\r\n\r\n        uint count;\r\n<<<<<<< HEAD\r\n        uint quorum = proxy.totalVotingPower().div(2);\r\n=======\r\n      //  uint quorum = ProxySimple(proxySimple).totalVotingPower.div(2);\r\n>>>>>>> refs/remotes/origin/master\r\n        for(uint i; i == loans.length; i++) {\r\n            count = loans[i].voteCount;\r\n            if( count <= quorum){\r\n                loans[i].state = true;\r\n            }\r\n        }\r\n\r\n        emit VotesTallied();\r\n    } */\r\n\r\n    function getVotersPower(address voter) external view returns(uint votingPower) {\r\n       votingPower = voters[voter].votingPower;\r\n    }\r\n\r\n    function getVotersProp(address voter) external view returns(uint proposalId) {\r\n       proposalId = voters[voter].proposalId;\r\n    }\r\n\r\n    function getWinningProposal() external onlyOwner returns (uint16 _proposalId) {\r\n        require(status == WorkflowStatus.VotingSessionEnded, \"Not allowed\");\r\n            uint winnerVoteCount = 0;\r\n            uint challenger = 0;\r\n            for (uint16 i; i < loans.length; i++) {\r\n                if (loans[i].voteCount > winnerVoteCount) {\r\n                    winnerVoteCount = loans[i].voteCount;\r\n                    _proposalId = i;\r\n                } else if (loans[i].voteCount == winnerVoteCount) {\r\n                    challenger = i;\r\n                }\r\n            }\r\n            winningProposalId = _proposalId;\r\n            if(winnerVoteCount == loans[challenger].voteCount) {\r\n                 winningProposalId = 0;\r\n                 receiverAddress = stacking;\r\n            }\r\n            emit VotesTallied();\r\n            receiverAddress = loans[winningProposalId].receiver;\r\n            return winningProposalId;\r\n          }\r\n\r\n    /// @notice Change the current status\r\n    /// @dev\r\n\r\n    function nextStep() external onlyOwner {\r\n        WorkflowStatus previousStatus = status;\r\n\r\n        if (status == WorkflowStatus.RegisteringEntities) {\r\n            status = WorkflowStatus.LoanRequestStarted;\r\n            registerLoanRequest(\"none of following proposals\",stacking);\r\n            emit ProposalsRegistrationStarted();\r\n        }\r\n        else if (status == WorkflowStatus.LoanRequestStarted) {\r\n            status = WorkflowStatus.LoanRequestEnded;\r\n            emit ProposalsRegistrationEnded();\r\n        }\r\n        else if (status == WorkflowStatus.LoanRequestEnded) {\r\n            status = WorkflowStatus.VotingSessionStarted;\r\n            emit VotingSessionStarted();\r\n        }\r\n        else if (status == WorkflowStatus.VotingSessionStarted) {\r\n            status = WorkflowStatus.VotingSessionEnded;\r\n            emit VotingSessionEnded();\r\n        }\r\n        else {\r\n            status = WorkflowStatus.VotesTallied;\r\n\r\n        }\r\n\r\n        emit WorkflowStatusChange(previousStatus, status);\r\n    }\r\n\r\n    function getWinningProposalId() external view returns(uint16){\r\n      return winningProposalId;\r\n    }\r\n\r\n    function getReceiverAddress() external view returns(address){\r\n      return receiverAddress;\r\n    }\r\n\r\n}\r\n",
  "sourcePath": "C:/Users/Morpheus/desktop/alyra/solipay/contracts/Borrow.sol",
  "compiler": {
    "name": "solc",
    "version": "0.6.11+commit.5ef660b1.Emscripten.clang"
  },
  "schemaVersion": "3.4.1",
  "updatedAt": "2021-05-11T10:37:56.284Z",
  "networkType": "ethereum",
  "devdoc": {
    "details": "The contract can still be improved",
    "kind": "dev",
    "methods": {
      "addVote(uint16)": {
        "details": "For the moment we only vote once",
        "params": {
          "_proposalId": "Proxy address"
        }
      },
      "owner()": {
        "details": "Returns the address of the current owner."
      },
      "registerLoanRequest(string,address)": {
        "params": {
          "_description": "receiver description of the project to fund and it address"
        }
      },
      "renounceOwnership()": {
        "details": "Leaves the contract without owner. It will not be possible to call `onlyOwner` functions anymore. Can only be called by the current owner. NOTE: Renouncing ownership will leave the contract without an owner, thereby removing any functionality that is only available to the owner."
      },
      "setEntity()": {
        "details": "Copy the array of users to the proxy, Error with Client call in ProxySimple.sol"
      },
      "transferOwnership(address)": {
        "details": "Transfers ownership of the contract to a new account (`newOwner`). Can only be called by the current owner."
      }
    },
    "title": "A contract for the management of votes",
    "version": 1
  },
  "userdoc": {
    "kind": "user",
    "methods": {
      "addVote(uint16)": {
        "notice": "Function to vote, Id 0 for blank vote"
      },
      "nextStep()": {
        "notice": "Change the current status"
      },
      "setEntity()": {
        "notice": "Records the addresses of participants"
      }
    },
    "version": 1
  }
}