{
  "contractName": "ProxySimple",
  "abi": [
    {
      "inputs": [],
      "stateMutability": "nonpayable",
      "type": "constructor"
    },
    {
      "anonymous": false,
      "inputs": [
        {
          "indexed": true,
          "internalType": "address",
          "name": "previousOwner",
          "type": "address"
        },
        {
          "indexed": true,
          "internalType": "address",
          "name": "newOwner",
          "type": "address"
        }
      ],
      "name": "OwnershipTransferred",
      "type": "event"
    },
    {
      "anonymous": false,
      "inputs": [
        {
          "indexed": true,
          "internalType": "address",
          "name": "client",
          "type": "address"
        },
        {
          "indexed": false,
          "internalType": "uint256",
          "name": "amount",
          "type": "uint256"
        }
      ],
      "name": "authorizedWithdrawal",
      "type": "event"
    },
    {
      "anonymous": false,
      "inputs": [
        {
          "indexed": true,
          "internalType": "address",
          "name": "client",
          "type": "address"
        },
        {
          "indexed": false,
          "internalType": "uint256",
          "name": "amount",
          "type": "uint256"
        }
      ],
      "name": "validDeposit",
      "type": "event"
    },
    {
      "anonymous": false,
      "inputs": [
        {
          "indexed": false,
          "internalType": "uint256",
          "name": "amount",
          "type": "uint256"
        }
      ],
      "name": "withdrawn",
      "type": "event"
    },
    {
      "inputs": [
        {
          "internalType": "uint256",
          "name": "",
          "type": "uint256"
        }
      ],
      "name": "adrClients",
      "outputs": [
        {
          "internalType": "address",
          "name": "",
          "type": "address"
        }
      ],
      "stateMutability": "view",
      "type": "function",
      "constant": true
    },
    {
      "inputs": [],
      "name": "owner",
      "outputs": [
        {
          "internalType": "address",
          "name": "",
          "type": "address"
        }
      ],
      "stateMutability": "view",
      "type": "function",
      "constant": true
    },
    {
      "inputs": [],
      "name": "renounceOwnership",
      "outputs": [],
      "stateMutability": "nonpayable",
      "type": "function"
    },
    {
      "inputs": [],
      "name": "stacking",
      "outputs": [
        {
          "internalType": "address",
          "name": "",
          "type": "address"
        }
      ],
      "stateMutability": "view",
      "type": "function",
      "constant": true
    },
    {
      "inputs": [],
      "name": "totalVotingPower",
      "outputs": [
        {
          "internalType": "uint256",
          "name": "",
          "type": "uint256"
        }
      ],
      "stateMutability": "view",
      "type": "function",
      "constant": true
    },
    {
      "inputs": [],
      "name": "totalWithdrawalAmount",
      "outputs": [
        {
          "internalType": "uint256",
          "name": "",
          "type": "uint256"
        }
      ],
      "stateMutability": "view",
      "type": "function",
      "constant": true
    },
    {
      "inputs": [
        {
          "internalType": "address",
          "name": "newOwner",
          "type": "address"
        }
      ],
      "name": "transferOwnership",
      "outputs": [],
      "stateMutability": "nonpayable",
      "type": "function"
    },
    {
      "inputs": [
        {
          "internalType": "address",
          "name": "",
          "type": "address"
        }
      ],
      "name": "user",
      "outputs": [
        {
          "internalType": "bool",
          "name": "lister",
          "type": "bool"
        },
        {
          "internalType": "uint256",
          "name": "withdrawPending",
          "type": "uint256"
        },
        {
          "internalType": "uint256",
          "name": "xTotalDeposit",
          "type": "uint256"
        }
      ],
      "stateMutability": "view",
      "type": "function",
      "constant": true
    },
    {
      "inputs": [],
      "name": "xLaunch",
      "outputs": [
        {
          "internalType": "uint256",
          "name": "",
          "type": "uint256"
        }
      ],
      "stateMutability": "view",
      "type": "function",
      "constant": true
    },
    {
      "inputs": [
        {
          "internalType": "contract IERC20",
          "name": "token",
          "type": "address"
        },
        {
          "internalType": "address",
          "name": "sender",
          "type": "address"
        },
        {
          "internalType": "address",
          "name": "recipient",
          "type": "address"
        },
        {
          "internalType": "uint256",
          "name": "amount",
          "type": "uint256"
        }
      ],
      "name": "transferProxy",
      "outputs": [],
      "stateMutability": "nonpayable",
      "type": "function"
    },
    {
      "inputs": [
        {
          "internalType": "contract IERC20",
          "name": "_tokenAd",
          "type": "address"
        }
      ],
      "name": "setTokenAd",
      "outputs": [],
      "stateMutability": "nonpayable",
      "type": "function"
    },
    {
      "inputs": [
        {
          "internalType": "address",
          "name": "contractAddr",
          "type": "address"
        }
      ],
      "name": "setStackingAddress",
      "outputs": [],
      "stateMutability": "nonpayable",
      "type": "function"
    },
    {
      "inputs": [
        {
          "internalType": "uint256",
          "name": "date",
          "type": "uint256"
        }
      ],
      "name": "updateXprice",
      "outputs": [
        {
          "internalType": "uint256",
          "name": "x",
          "type": "uint256"
        }
      ],
      "stateMutability": "view",
      "type": "function",
      "constant": true
    },
    {
      "inputs": [],
      "name": "totalWithdraw",
      "outputs": [
        {
          "internalType": "uint256",
          "name": "",
          "type": "uint256"
        }
      ],
      "stateMutability": "view",
      "type": "function",
      "constant": true
    },
    {
      "inputs": [],
      "name": "getAdrClients",
      "outputs": [
        {
          "internalType": "address[]",
          "name": "",
          "type": "address[]"
        }
      ],
      "stateMutability": "view",
      "type": "function",
      "constant": true
    },
    {
      "inputs": [],
      "name": "getTotalVotingPower",
      "outputs": [
        {
          "internalType": "uint256",
          "name": "",
          "type": "uint256"
        }
      ],
      "stateMutability": "view",
      "type": "function",
      "constant": true
    },
    {
      "inputs": [
        {
          "internalType": "address",
          "name": "_user",
          "type": "address"
        }
      ],
      "name": "getUser",
      "outputs": [
        {
          "components": [
            {
              "internalType": "bool",
              "name": "lister",
              "type": "bool"
            },
            {
              "internalType": "uint256",
              "name": "withdrawPending",
              "type": "uint256"
            },
            {
              "internalType": "uint256",
              "name": "xTotalDeposit",
              "type": "uint256"
            },
            {
              "internalType": "uint256[]",
              "name": "xDeposit",
              "type": "uint256[]"
            },
            {
              "internalType": "uint256[]",
              "name": "DepositLocked",
              "type": "uint256[]"
            }
          ],
          "internalType": "struct ProxySimple.Client",
          "name": "",
          "type": "tuple"
        }
      ],
      "stateMutability": "view",
      "type": "function",
      "constant": true
    },
    {
      "inputs": [
        {
          "internalType": "address",
          "name": "_user",
          "type": "address"
        }
      ],
      "name": "getUserDeposits",
      "outputs": [
        {
          "internalType": "uint256",
          "name": "",
          "type": "uint256"
        }
      ],
      "stateMutability": "view",
      "type": "function",
      "constant": true
    },
    {
      "inputs": [
        {
          "internalType": "address",
          "name": "borrowAddress",
          "type": "address"
        }
      ],
      "name": "setFundingProject",
      "outputs": [
        {
          "internalType": "address",
          "name": "",
          "type": "address"
        }
      ],
      "stateMutability": "nonpayable",
      "type": "function"
    },
    {
      "inputs": [
        {
          "internalType": "uint256",
          "name": "amount",
          "type": "uint256"
        }
      ],
      "name": "approveStacking",
      "outputs": [
        {
          "internalType": "bool",
          "name": "",
          "type": "bool"
        }
      ],
      "stateMutability": "nonpayable",
      "type": "function"
    },
    {
      "inputs": [
        {
          "internalType": "uint256",
          "name": "amount",
          "type": "uint256"
        }
      ],
      "name": "deposit",
      "outputs": [],
      "stateMutability": "payable",
      "type": "function",
      "payable": true
    },
    {
      "inputs": [
        {
          "internalType": "uint256",
          "name": "withdrawAmount",
          "type": "uint256"
        }
      ],
      "name": "wantWithdraw",
      "outputs": [
        {
          "internalType": "uint256",
          "name": "",
          "type": "uint256"
        }
      ],
      "stateMutability": "nonpayable",
      "type": "function"
    },
    {
      "inputs": [
        {
          "internalType": "contract IERC20",
          "name": "_address",
          "type": "address"
        }
      ],
      "name": "withdraw",
      "outputs": [],
      "stateMutability": "payable",
      "type": "function",
      "payable": true
    }
  ],
  "bytecode": "0x6080604052600560045562a066806005553480156200001d57600080fd5b50600062000030620000db60201b60201c565b9050806000806101000a81548173ffffffffffffffffffffffffffffffffffffffff021916908373ffffffffffffffffffffffffffffffffffffffff1602179055508073ffffffffffffffffffffffffffffffffffffffff16600073ffffffffffffffffffffffffffffffffffffffff167f8be0079c531659141344cd1fd0a4f28419497f9722a3daafe3b4186f6b6457e060405160405180910390a35042600681905550620000e3565b600033905090565b6133b880620000f36000396000f3fe6080604052600436106101405760003560e01c8063715018a6116100b6578063b6b55f251161006f578063b6b55f2514610479578063c62bfd8f14610495578063db1f497a146104c0578063dea07d41146104fd578063e23e0e0814610526578063f2fde38b1461055157610140565b8063715018a614610355578063771616021461036c57806381e7e20e146103a95780638a977b19146103e85780638da5cb5b146104255780639cc901bc1461045057610140565b806349be5f3a1161010857806349be5f3a1461025257806351cff8d91461027b578063671b3793146102975780636777f70c146102c25780636c8751a8146102ed5780636f77926b1461031857610140565b806311acc1a714610145578063164deade1461017057806324d6072c146101ad5780632a5bf6d2146101ea578063455fd62314610227575b600080fd5b34801561015157600080fd5b5061015a61057a565b60405161016791906131af565b60405180910390f35b34801561017c57600080fd5b50610197600480360381019061019291906128ce565b610584565b6040516101a49190612ef5565b60405180910390f35b3480156101b957600080fd5b506101d460048036038101906101cf91906128ce565b6105c0565b6040516101e191906131af565b60405180910390f35b3480156101f657600080fd5b50610211600480360381019061020c91906127c7565b611063565b60405161021e91906131af565b60405180910390f35b34801561023357600080fd5b5061023c6110af565b60405161024991906131af565b60405180910390f35b34801561025e57600080fd5b506102796004803603810190610274919061286b565b6110b9565b005b61029560048036038101906102909190612842565b6111cb565b005b3480156102a357600080fd5b506102ac611465565b6040516102b991906131af565b60405180910390f35b3480156102ce57600080fd5b506102d761146b565b6040516102e491906131af565b60405180910390f35b3480156102f957600080fd5b50610302611471565b60405161030f9190612f99565b60405180910390f35b34801561032457600080fd5b5061033f600480360381019061033a91906127c7565b6114ff565b60405161034c919061318d565b60405180910390f35b34801561036157600080fd5b5061036a611637565b005b34801561037857600080fd5b50610393600480360381019061038e91906128ce565b611772565b6040516103a09190612fbb565b60405180910390f35b3480156103b557600080fd5b506103d060048036038101906103cb91906127c7565b61189c565b6040516103df93929190612fd6565b60405180910390f35b3480156103f457600080fd5b5061040f600480360381019061040a91906127c7565b6118d3565b60405161041c9190612ef5565b60405180910390f35b34801561043157600080fd5b5061043a611a14565b6040516104479190612ef5565b60405180910390f35b34801561045c57600080fd5b50610477600480360381019061047291906127c7565b611a3d565b005b610493600480360381019061048e91906128ce565b611afd565b005b3480156104a157600080fd5b506104aa611fd1565b6040516104b79190612ef5565b60405180910390f35b3480156104cc57600080fd5b506104e760048036038101906104e291906128ce565b611ff7565b6040516104f491906131af565b60405180910390f35b34801561050957600080fd5b50610524600480360381019061051f9190612842565b612090565b005b34801561053257600080fd5b5061053b612150565b60405161054891906131af565b60405180910390f35b34801561055d57600080fd5b50610578600480360381019061057391906127c7565b612156565b005b6000600854905090565b600a818154811061059157fe5b906000526020600020016000915054906101000a900473ffffffffffffffffffffffffffffffffffffffff1681565b6000806105cd6000611ff7565b90506000620f4240905060006105fe836105f0848861230090919063ffffffff16565b61237090919063ffffffff16565b9050600160003373ffffffffffffffffffffffffffffffffffffffff1673ffffffffffffffffffffffffffffffffffffffff16815260200190815260200160002060020154811115610685576040517f08c379a000000000000000000000000000000000000000000000000000000000815260040161067c9061316d565b60405180910390fd5b6000610704836106f686600160003373ffffffffffffffffffffffffffffffffffffffff1673ffffffffffffffffffffffffffffffffffffffff1681526020019081526020016000206003016000815481106106dd57fe5b906000526020600020015461230090919063ffffffff16565b61237090919063ffffffff16565b9050600160003373ffffffffffffffffffffffffffffffffffffffff1673ffffffffffffffffffffffffffffffffffffffff16815260200190815260200160002060040160008154811061075457fe5b90600052602060002001548110156107a1576040517f08c379a00000000000000000000000000000000000000000000000000000000081526004016107989061312d565b60405180910390fd5b6000600160003373ffffffffffffffffffffffffffffffffffffffff1673ffffffffffffffffffffffffffffffffffffffff1681526020019081526020016000206004018054905090506000806000805b84811015610ad957610864600160003373ffffffffffffffffffffffffffffffffffffffff1673ffffffffffffffffffffffffffffffffffffffff168152602001908152602001600020600401828154811061084a57fe5b9060005260206000200154836123c690919063ffffffff16565b915060006108e4896108d68c600160003373ffffffffffffffffffffffffffffffffffffffff1673ffffffffffffffffffffffffffffffffffffffff16815260200190815260200160002060030186815481106108bd57fe5b906000526020600020015461230090919063ffffffff16565b61237090919063ffffffff16565b9050828c1061098f57600160003373ffffffffffffffffffffffffffffffffffffffff1673ffffffffffffffffffffffffffffffffffffffff168152602001908152602001600020600401828154811061093a57fe5b9060005260206000200154811015610987576040517f08c379a000000000000000000000000000000000000000000000000000000000815260040161097e906130ed565b60405180910390fd5b819450610acb565b828c1080156109f55750600160003373ffffffffffffffffffffffffffffffffffffffff1673ffffffffffffffffffffffffffffffffffffffff16815260200190815260200160002060040182815481106109e657fe5b90600052602060002001548110155b15610a1757819450610a108c8461241b90919063ffffffff16565b9350610aca565b6000610a83600160003373ffffffffffffffffffffffffffffffffffffffff1673ffffffffffffffffffffffffffffffffffffffff1681526020019081526020016000206004018481548110610a6957fe5b90600052602060002001548561241b90919063ffffffff16565b9050808d1115610ac8576040517f08c379a0000000000000000000000000000000000000000000000000000000008152600401610abf906130ad565b60405180910390fd5b505b5b5080806001019150506107f2565b50610b2f8a600160003373ffffffffffffffffffffffffffffffffffffffff1673ffffffffffffffffffffffffffffffffffffffff168152602001908152602001600020600101546123c690919063ffffffff16565b600160003373ffffffffffffffffffffffffffffffffffffffff1673ffffffffffffffffffffffffffffffffffffffff168152602001908152602001600020600101819055506000339050610b8581858761246b565b6000831115610e86576000610bb58a610ba78b8761230090919063ffffffff16565b61237090919063ffffffff16565b9050600160003373ffffffffffffffffffffffffffffffffffffffff1673ffffffffffffffffffffffffffffffffffffffff168152602001908152602001600020600301819080600181540180825580915050600190039060005260206000200160009091909190915055600160003373ffffffffffffffffffffffffffffffffffffffff1673ffffffffffffffffffffffffffffffffffffffff1681526020019081526020016000206004018190806001815401808255809150506001900390600052602060002001600090919091909150556000600160003373ffffffffffffffffffffffffffffffffffffffff1673ffffffffffffffffffffffffffffffffffffffff1681526020019081526020016000206003018054905090506000610ce960018361241b90919063ffffffff16565b90505b6000811115610e82576000610d0b60018361241b90919063ffffffff16565b9050600160003373ffffffffffffffffffffffffffffffffffffffff1673ffffffffffffffffffffffffffffffffffffffff1681526020019081526020016000206003018181548110610d5a57fe5b9060005260206000200154600160003373ffffffffffffffffffffffffffffffffffffffff1673ffffffffffffffffffffffffffffffffffffffff1681526020019081526020016000206003018381548110610db257fe5b9060005260206000200181905550600160003373ffffffffffffffffffffffffffffffffffffffff1673ffffffffffffffffffffffffffffffffffffffff1681526020019081526020016000206004018181548110610e0d57fe5b9060005260206000200154600160003373ffffffffffffffffffffffffffffffffffffffff1673ffffffffffffffffffffffffffffffffffffffff1681526020019081526020016000206004018381548110610e6557fe5b906000526020600020018190555050808060019003915050610cec565b5050505b610edb87600160003373ffffffffffffffffffffffffffffffffffffffff1673ffffffffffffffffffffffffffffffffffffffff1681526020019081526020016000206002015461241b90919063ffffffff16565b600160003373ffffffffffffffffffffffffffffffffffffffff1673ffffffffffffffffffffffffffffffffffffffff16815260200190815260200160002060020181905550610f368b6007546123c690919063ffffffff16565b600781905550600260009054906101000a900473ffffffffffffffffffffffffffffffffffffffff1673ffffffffffffffffffffffffffffffffffffffff1663095ea7b3338d6040518363ffffffff1660e01b8152600401610f99929190612f10565b602060405180830381600087803b158015610fb357600080fd5b505af1158015610fc7573d6000803e3d6000fd5b505050506040513d601f19601f82011682018060405250810190610feb9190612819565b506110018760085461241b90919063ffffffff16565b6008819055503373ffffffffffffffffffffffffffffffffffffffff167f289473d20f7dbb55ce607f3e02b0de290bceb88a7728f441f04f7179c12da5168c60405161104d91906131af565b60405180910390a2505050505050505050919050565b6000600160008373ffffffffffffffffffffffffffffffffffffffff1673ffffffffffffffffffffffffffffffffffffffff168152602001908152602001600020600201549050919050565b6000600754905090565b6110c1612725565b73ffffffffffffffffffffffffffffffffffffffff166110df611a14565b73ffffffffffffffffffffffffffffffffffffffff1614611135576040517f08c379a000000000000000000000000000000000000000000000000000000000815260040161112c9061310d565b60405180910390fd5b8373ffffffffffffffffffffffffffffffffffffffff166323b872dd8484846040518463ffffffff1660e01b815260040161117293929190612f39565b602060405180830381600087803b15801561118c57600080fd5b505af11580156111a0573d6000803e3d6000fd5b505050506040513d601f19601f820116820180604052508101906111c49190612819565b5050505050565b6111d3612725565b73ffffffffffffffffffffffffffffffffffffffff166111f1611a14565b73ffffffffffffffffffffffffffffffffffffffff1614611247576040517f08c379a000000000000000000000000000000000000000000000000000000000815260040161123e9061310d565b60405180910390fd5b600080600a8054905090506000805b8281101561141d576000600a828154811061126d57fe5b9060005260206000200160009054906101000a900473ffffffffffffffffffffffffffffffffffffffff169050600160008273ffffffffffffffffffffffffffffffffffffffff1673ffffffffffffffffffffffffffffffffffffffff1681526020019081526020016000206001015494506112f285846123c690919063ffffffff16565b9250600754831115611339576040517f08c379a00000000000000000000000000000000000000000000000000000000081526004016113309061314d565b60405180910390fd5b8573ffffffffffffffffffffffffffffffffffffffff1663a9059cbb82876040518363ffffffff1660e01b8152600401611374929190612f70565b602060405180830381600087803b15801561138e57600080fd5b505af11580156113a2573d6000803e3d6000fd5b505050506040513d601f19601f820116820180604052508101906113c69190612819565b506000600160008373ffffffffffffffffffffffffffffffffffffffff1673ffffffffffffffffffffffffffffffffffffffff16815260200190815260200160002060010181905550508080600101915050611256565b507fe6b43d01275ea8d9d25bfaa418ad4c2cba4924a59bae1903979130e0a2bbf19260075460405161144f91906131af565b60405180910390a1600060078190555050505050565b60085481565b60065481565b6060600a8054806020026020016040519081016040528092919081815260200182805480156114f557602002820191906000526020600020905b8160009054906101000a900473ffffffffffffffffffffffffffffffffffffffff1673ffffffffffffffffffffffffffffffffffffffff16815260200190600101908083116114ab575b5050505050905090565b61150761272d565b600160008373ffffffffffffffffffffffffffffffffffffffff1673ffffffffffffffffffffffffffffffffffffffff1681526020019081526020016000206040518060a00160405290816000820160009054906101000a900460ff161515151581526020016001820154815260200160028201548152602001600382018054806020026020016040519081016040528092919081815260200182805480156115cf57602002820191906000526020600020905b8154815260200190600101908083116115bb575b505050505081526020016004820180548060200260200160405190810160405280929190818152602001828054801561162757602002820191906000526020600020905b815481526020019060010190808311611613575b5050505050815250509050919050565b61163f612725565b73ffffffffffffffffffffffffffffffffffffffff1661165d611a14565b73ffffffffffffffffffffffffffffffffffffffff16146116b3576040517f08c379a00000000000000000000000000000000000000000000000000000000081526004016116aa9061310d565b60405180910390fd5b600073ffffffffffffffffffffffffffffffffffffffff166000809054906101000a900473ffffffffffffffffffffffffffffffffffffffff1673ffffffffffffffffffffffffffffffffffffffff167f8be0079c531659141344cd1fd0a4f28419497f9722a3daafe3b4186f6b6457e060405160405180910390a360008060006101000a81548173ffffffffffffffffffffffffffffffffffffffff021916908373ffffffffffffffffffffffffffffffffffffffff160217905550565b6000806060600260009054906101000a900473ffffffffffffffffffffffffffffffffffffffff1673ffffffffffffffffffffffffffffffffffffffff1630856040516024016117c3929190612f70565b6040516020818303038152906040527f095ea7b3000000000000000000000000000000000000000000000000000000007bffffffffffffffffffffffffffffffffffffffffffffffffffffffff19166020820180517bffffffffffffffffffffffffffffffffffffffffffffffffffffffff838183161783525050505060405161184d9190612ede565b600060405180830381855af49150503d8060008114611888576040519150601f19603f3d011682016040523d82523d6000602084013e61188d565b606091505b50915091508192505050919050565b60016020528060005260406000206000915090508060000160009054906101000a900460ff16908060010154908060020154905083565b60006118dd612725565b73ffffffffffffffffffffffffffffffffffffffff166118fb611a14565b73ffffffffffffffffffffffffffffffffffffffff1614611951576040517f08c379a00000000000000000000000000000000000000000000000000000000081526004016119489061310d565b60405180910390fd5b8173ffffffffffffffffffffffffffffffffffffffff166316fed3e26040518163ffffffff1660e01b815260040160206040518083038186803b15801561199757600080fd5b505afa1580156119ab573d6000803e3d6000fd5b505050506040513d601f19601f820116820180604052508101906119cf91906127f0565b600960006101000a81548173ffffffffffffffffffffffffffffffffffffffff021916908373ffffffffffffffffffffffffffffffffffffffff160217905550919050565b60008060009054906101000a900473ffffffffffffffffffffffffffffffffffffffff16905090565b611a45612725565b73ffffffffffffffffffffffffffffffffffffffff16611a63611a14565b73ffffffffffffffffffffffffffffffffffffffff1614611ab9576040517f08c379a0000000000000000000000000000000000000000000000000000000008152600401611ab09061310d565b60405180910390fd5b80600360006101000a81548173ffffffffffffffffffffffffffffffffffffffff021916908373ffffffffffffffffffffffffffffffffffffffff16021790555050565b60008111611b40576040517f08c379a0000000000000000000000000000000000000000000000000000000008152600401611b379061300d565b60405180910390fd5b6000611b4c6000611ff7565b90506000620f424090506000339050600260009054906101000a900473ffffffffffffffffffffffffffffffffffffffff1673ffffffffffffffffffffffffffffffffffffffff166323b872dd82600360009054906101000a900473ffffffffffffffffffffffffffffffffffffffff16876040518463ffffffff1660e01b8152600401611bdc93929190612f39565b602060405180830381600087803b158015611bf657600080fd5b505af1158015611c0a573d6000803e3d6000fd5b505050506040513d601f19601f82011682018060405250810190611c2e9190612819565b506000611c5684611c48858861230090919063ffffffff16565b61237090919063ffffffff16565b9050600160003373ffffffffffffffffffffffffffffffffffffffff1673ffffffffffffffffffffffffffffffffffffffff168152602001908152602001600020600301819080600181540180825580915050600190039060005260206000200160009091909190915055611d1681600160003373ffffffffffffffffffffffffffffffffffffffff1673ffffffffffffffffffffffffffffffffffffffff168152602001908152602001600020600201546123c690919063ffffffff16565b600160003373ffffffffffffffffffffffffffffffffffffffff1673ffffffffffffffffffffffffffffffffffffffff168152602001908152602001600020600201819055506000611d69600554611ff7565b90506000611d9285611d84848661230090919063ffffffff16565b61237090919063ffffffff16565b9050600160003373ffffffffffffffffffffffffffffffffffffffff1673ffffffffffffffffffffffffffffffffffffffff16815260200190815260200160002060040181908060018154018082558091505060019003906000526020600020016000909190919091505560001515600160003373ffffffffffffffffffffffffffffffffffffffff1673ffffffffffffffffffffffffffffffffffffffff16815260200190815260200160002060000160009054906101000a900460ff1615151415611f5f57600a339080600181540180825580915050600190039060005260206000200160009091909190916101000a81548173ffffffffffffffffffffffffffffffffffffffff021916908373ffffffffffffffffffffffffffffffffffffffff16021790555060018060003373ffffffffffffffffffffffffffffffffffffffff1673ffffffffffffffffffffffffffffffffffffffff16815260200190815260200160002060000160006101000a81548160ff0219169083151502179055506000600160003373ffffffffffffffffffffffffffffffffffffffff1673ffffffffffffffffffffffffffffffffffffffff168152602001908152602001600020600101819055505b3373ffffffffffffffffffffffffffffffffffffffff167fa2f565c4c54c741c5371b9b87afec1b21d46d9a157fd88dd94dc43915a48956188604051611fa591906131af565b60405180910390a2611fc2836008546123c690919063ffffffff16565b60088190555050505050505050565b600360009054906101000a900473ffffffffffffffffffffffffffffffffffffffff1681565b600080620f42409050612088612079606461206b60045461205d6301e1338061204f886120416006546120338e426123c690919063ffffffff16565b61241b90919063ffffffff16565b61230090919063ffffffff16565b61237090919063ffffffff16565b61230090919063ffffffff16565b61237090919063ffffffff16565b826123c690919063ffffffff16565b915050919050565b612098612725565b73ffffffffffffffffffffffffffffffffffffffff166120b6611a14565b73ffffffffffffffffffffffffffffffffffffffff161461210c576040517f08c379a00000000000000000000000000000000000000000000000000000000081526004016121039061310d565b60405180910390fd5b80600260006101000a81548173ffffffffffffffffffffffffffffffffffffffff021916908373ffffffffffffffffffffffffffffffffffffffff16021790555050565b60075481565b61215e612725565b73ffffffffffffffffffffffffffffffffffffffff1661217c611a14565b73ffffffffffffffffffffffffffffffffffffffff16146121d2576040517f08c379a00000000000000000000000000000000000000000000000000000000081526004016121c99061310d565b60405180910390fd5b600073ffffffffffffffffffffffffffffffffffffffff168173ffffffffffffffffffffffffffffffffffffffff161415612242576040517f08c379a00000000000000000000000000000000000000000000000000000000081526004016122399061302d565b60405180910390fd5b8073ffffffffffffffffffffffffffffffffffffffff166000809054906101000a900473ffffffffffffffffffffffffffffffffffffffff1673ffffffffffffffffffffffffffffffffffffffff167f8be0079c531659141344cd1fd0a4f28419497f9722a3daafe3b4186f6b6457e060405160405180910390a3806000806101000a81548173ffffffffffffffffffffffffffffffffffffffff021916908373ffffffffffffffffffffffffffffffffffffffff16021790555050565b600080831415612313576000905061236a565b600082840290508284828161232457fe5b0414612365576040517f08c379a000000000000000000000000000000000000000000000000000000000815260040161235c906130cd565b60405180910390fd5b809150505b92915050565b60008082116123b4576040517f08c379a00000000000000000000000000000000000000000000000000000000081526004016123ab9061308d565b60405180910390fd5b8183816123bd57fe5b04905092915050565b600080828401905083811015612411576040517f08c379a00000000000000000000000000000000000000000000000000000000081526004016124089061304d565b60405180910390fd5b8091505092915050565b600082821115612460576040517f08c379a00000000000000000000000000000000000000000000000000000000081526004016124579061306d565b60405180910390fd5b818303905092915050565b600061248160018361241b90919063ffffffff16565b90506000612498848361241b90919063ffffffff16565b905060005b818110156126435760006124cd60016124bf88856123c690919063ffffffff16565b6123c690919063ffffffff16565b9050600160008873ffffffffffffffffffffffffffffffffffffffff1673ffffffffffffffffffffffffffffffffffffffff168152602001908152602001600020600301818154811061251c57fe5b9060005260206000200154600160008973ffffffffffffffffffffffffffffffffffffffff1673ffffffffffffffffffffffffffffffffffffffff168152602001908152602001600020600301838154811061257457fe5b9060005260206000200181905550600160008873ffffffffffffffffffffffffffffffffffffffff1673ffffffffffffffffffffffffffffffffffffffff16815260200190815260200160002060040181815481106125cf57fe5b9060005260206000200154600160008973ffffffffffffffffffffffffffffffffffffffff1673ffffffffffffffffffffffffffffffffffffffff168152602001908152602001600020600401838154811061262757fe5b906000526020600020018190555050808060010191505061249d565b5060005b84811161271d57600160008773ffffffffffffffffffffffffffffffffffffffff1673ffffffffffffffffffffffffffffffffffffffff16815260200190815260200160002060030180548061269957fe5b60019003818190600052602060002001600090559055600160008773ffffffffffffffffffffffffffffffffffffffff1673ffffffffffffffffffffffffffffffffffffffff1681526020019081526020016000206004018054806126fa57fe5b600190038181906000526020600020016000905590558080600101915050612647565b505050505050565b600033905090565b6040518060a00160405280600015158152602001600081526020016000815260200160608152602001606081525090565b60008135905061276d81613326565b92915050565b60008151905061278281613326565b92915050565b6000815190506127978161333d565b92915050565b6000813590506127ac81613354565b92915050565b6000813590506127c18161336b565b92915050565b6000602082840312156127d957600080fd5b60006127e78482850161275e565b91505092915050565b60006020828403121561280257600080fd5b600061281084828501612773565b91505092915050565b60006020828403121561282b57600080fd5b600061283984828501612788565b91505092915050565b60006020828403121561285457600080fd5b60006128628482850161279d565b91505092915050565b6000806000806080858703121561288157600080fd5b600061288f8782880161279d565b94505060206128a08782880161275e565b93505060406128b18782880161275e565b92505060606128c2878288016127b2565b91505092959194509250565b6000602082840312156128e057600080fd5b60006128ee848285016127b2565b91505092915050565b60006129038383612936565b60208301905092915050565b600061291b8383612ec0565b60208301905092915050565b612930816132bd565b82525050565b61293f81613263565b82525050565b61294e81613263565b82525050565b600061295f826131ea565b6129698185613225565b9350612974836131ca565b8060005b838110156129a557815161298c88826128f7565b97506129978361320b565b925050600181019050612978565b5085935050505092915050565b60006129bd826131f5565b6129c78185613236565b93506129d2836131da565b8060005b83811015612a035781516129ea888261290f565b97506129f583613218565b9250506001810190506129d6565b5085935050505092915050565b612a1981613275565b82525050565b612a2881613275565b82525050565b6000612a3982613200565b612a438185613247565b9350612a538185602086016132f3565b80840191505092915050565b6000612a6c601183613252565b91507f63616e206e6f74206465706f73697420300000000000000000000000000000006000830152602082019050919050565b6000612aac602683613252565b91507f4f776e61626c653a206e6577206f776e657220697320746865207a65726f206160008301527f64647265737300000000000000000000000000000000000000000000000000006020830152604082019050919050565b6000612b12601b83613252565b91507f536166654d6174683a206164646974696f6e206f766572666c6f7700000000006000830152602082019050919050565b6000612b52601e83613252565b91507f536166654d6174683a207375627472616374696f6e206f766572666c6f7700006000830152602082019050919050565b6000612b92601a83613252565b91507f536166654d6174683a206469766973696f6e206279207a65726f0000000000006000830152602082019050919050565b6000612bd2602683613252565b91507f63616e206e6f742077697468647261772066726f6d2061206c6f636b6564206460008301527f65706f73697400000000000000000000000000000000000000000000000000006020830152604082019050919050565b6000612c38602183613252565b91507f536166654d6174683a206d756c7469706c69636174696f6e206f766572666c6f60008301527f77000000000000000000000000000000000000000000000000000000000000006020830152604082019050919050565b6000612c9e602183613252565b91507f63616e206e6f742077697468647261772061206c6f636b6564206465706f736960008301527f74000000000000000000000000000000000000000000000000000000000000006020830152604082019050919050565b6000612d04602083613252565b91507f4f776e61626c653a2063616c6c6572206973206e6f7420746865206f776e65726000830152602082019050919050565b6000612d44602983613252565b91507f746865206669727374206465706f7369742063616e206e6f7420626520756e6c60008301527f6f636b6564206e6f7700000000000000000000000000000000000000000000006020830152604082019050919050565b6000612daa601183613252565b91507f746f6f206d7563682057697468647261770000000000000000000000000000006000830152602082019050919050565b6000612dea602883613252565b91507f63616e206e6f74207769746864726177206d6f7265207468616e20796f75206460008301527f65706f73697465640000000000000000000000000000000000000000000000006020830152604082019050919050565b600060a083016000830151612e5b6000860182612a10565b506020830151612e6e6020860182612ec0565b506040830151612e816040860182612ec0565b5060608301518482036060860152612e9982826129b2565b91505060808301518482036080860152612eb382826129b2565b9150508091505092915050565b612ec9816132b3565b82525050565b612ed8816132b3565b82525050565b6000612eea8284612a2e565b915081905092915050565b6000602082019050612f0a6000830184612945565b92915050565b6000604082019050612f256000830185612927565b612f326020830184612ecf565b9392505050565b6000606082019050612f4e6000830186612945565b612f5b6020830185612945565b612f686040830184612ecf565b949350505050565b6000604082019050612f856000830185612945565b612f926020830184612ecf565b9392505050565b60006020820190508181036000830152612fb38184612954565b905092915050565b6000602082019050612fd06000830184612a1f565b92915050565b6000606082019050612feb6000830186612a1f565b612ff86020830185612ecf565b6130056040830184612ecf565b949350505050565b6000602082019050818103600083015261302681612a5f565b9050919050565b6000602082019050818103600083015261304681612a9f565b9050919050565b6000602082019050818103600083015261306681612b05565b9050919050565b6000602082019050818103600083015261308681612b45565b9050919050565b600060208201905081810360008301526130a681612b85565b9050919050565b600060208201905081810360008301526130c681612bc5565b9050919050565b600060208201905081810360008301526130e681612c2b565b9050919050565b6000602082019050818103600083015261310681612c91565b9050919050565b6000602082019050818103600083015261312681612cf7565b9050919050565b6000602082019050818103600083015261314681612d37565b9050919050565b6000602082019050818103600083015261316681612d9d565b9050919050565b6000602082019050818103600083015261318681612ddd565b9050919050565b600060208201905081810360008301526131a78184612e43565b905092915050565b60006020820190506131c46000830184612ecf565b92915050565b6000819050602082019050919050565b6000819050602082019050919050565b600081519050919050565b600081519050919050565b600081519050919050565b6000602082019050919050565b6000602082019050919050565b600082825260208201905092915050565b600082825260208201905092915050565b600081905092915050565b600082825260208201905092915050565b600061326e82613293565b9050919050565b60008115159050919050565b600061328c82613263565b9050919050565b600073ffffffffffffffffffffffffffffffffffffffff82169050919050565b6000819050919050565b60006132c8826132cf565b9050919050565b60006132da826132e1565b9050919050565b60006132ec82613293565b9050919050565b60005b838110156133115780820151818401526020810190506132f6565b83811115613320576000848401525b50505050565b61332f81613263565b811461333a57600080fd5b50565b61334681613275565b811461335157600080fd5b50565b61335d81613281565b811461336857600080fd5b50565b613374816132b3565b811461337f57600080fd5b5056fea2646970667358221220a7bfbd2fbd41083eba5b33d6ac132a031599b8a98f7b03affa7ec320ca6f9a7c64736f6c634300060b0033",
  "immutableReferences": {},
  "source": "// SPDX-License-Identifier: MIT\r\npragma solidity 0.6.11;\r\npragma experimental ABIEncoderV2;\r\n\r\nimport \"@openzeppelin/contracts/access/Ownable.sol\";\r\nimport \"@openzeppelin/contracts/math/SafeMath.sol\";\r\nimport \"@openzeppelin/contracts/utils/Address.sol\";\r\nimport \"@openzeppelin/contracts/utils/Context.sol\";\r\n//import \"@openzeppelin/contracts/token/ERC20/IERC20.sol\";\r\nimport \"./Stacking.sol\";\r\nimport \"./interfaces/IBorrow.sol\";\r\n\r\n\r\n\r\n\r\ncontract ProxySimple is Ownable{\r\n  using SafeMath for uint;\r\n\r\n\r\n  // Client Structure\r\n\r\n  struct Client {\r\n    bool lister; // registred in adrClients\r\n    uint withdrawPending; // total withdraw request\r\n    uint xTotalDeposit; // total deposit expressed in x value\r\n    uint[] xDeposit; // array of the differents deposits in x value\r\n    uint[] DepositLocked; // array of the differents deposits when the deposit could be withdraw\r\n  }\r\n\r\n  // Mapping\r\n\r\n  mapping (address => Client) public user;\r\n\r\n  // Variable\r\n\r\n  // Token address accepted as\r\n  IERC20 tokenAd;\r\n\r\n  // Staking contract address\r\n  address public stacking;\r\n\r\n  // Interest\r\n  uint apy = 5 ;\r\n  // Lock times\r\n  uint timeLock = 10512000;\r\n  // Contract deployment date\r\n  uint public xLaunch;\r\n\r\n  // Global sum available ready to pay\r\n  uint public totalWithdrawalAmount;\r\n\r\n  uint public totalVotingPower;\r\n\r\n  address fundingProject;\r\n\r\n  // Customer Tables\r\n\r\n  address[] public adrClients;\r\n\r\n  // Event\r\n\r\n  event validDeposit(address indexed client, uint amount);\r\n  event authorizedWithdrawal(address indexed client, uint amount);\r\n  event withdrawn(uint amount);\r\n\r\n  // Constructor\r\n\r\n  constructor() public{\r\n    xLaunch = block.timestamp;\r\n  }\r\n\r\n  // This function is just for testing\r\n  function transferProxy(IERC20 token, address sender, address recipient, uint amount) external onlyOwner{\r\n    IERC20(token).transferFrom(sender, recipient, amount);\r\n  }\r\n\r\n  /// @notice Define IERC20 token address accepted as deposit\r\n  /// @dev restricted to the contract's owner\r\n  /// @param _tokenAd IERC20 the token address\r\n  function setTokenAd(IERC20 _tokenAd) external onlyOwner{\r\n    tokenAd=_tokenAd;\r\n  }\r\n\r\n\r\n  /// @notice Define stacking contract address to send the deposit\r\n  /// @dev could be upgraded by using an stacking interface ?\r\n  /// @param contractAddr the address of the stacking contract\r\n  function setStackingAddress(address contractAddr) external onlyOwner {\r\n    stacking = contractAddr ;\r\n  }\r\n\r\n  /// @notice fetch the value of x, give actual value if argument equal to zero\r\n  /// @dev view function usefull for interest computation\r\n  /// @param date a epoch time to add at the current time to fetch x value in the future\r\n  ///@return x the value for a given date\r\n  function updateXprice(uint date) public view returns(uint x){\r\n    uint z = 1000000;\r\n    x = z.add((((block.timestamp.add(date)).sub(xLaunch)).mul(z).div(31536000)).mul(apy).div(100));\r\n  }\r\n\r\n  function totalWithdraw() external view returns(uint) {\r\n    return totalWithdrawalAmount;\r\n  }\r\n\r\n  /// @notice return the client's address aray\r\n  /// @dev usefull as relay for sending the client addresses to a borrow.sol contract\r\n  /// @dev could be useless if it is possible access directly to the contract variable\r\n  /// @return array of client address\r\n  function getAdrClients() external view returns(address[] memory) {\r\n    return adrClients;\r\n  }\r\n\r\n  /// @notice return the total voting power\r\n  /// @dev it represents total summed xDeposit of every client\r\n  /// @return big number totalVotingPower\r\n  function getTotalVotingPower() external view returns(uint) {\r\n    return totalVotingPower;\r\n  }\r\n  /// @notice return client object\r\n  /// @dev usefull as relay for sending the client properties to a borrow.sol contract\r\n  /// @param _user the client address\r\n  /// @return client object\r\n  function getUser(address _user) external view returns(Client memory) {\r\n    return user[_user];\r\n  }\r\n\r\n\r\n  /// @dev usefull as relay for sending the client total deposit in x value to a borrow.sol contract\r\n  /// @param _user the client address\r\n  /// @return client object\r\n  function getUserDeposits(address _user) external view returns(uint) {\r\n    return user[_user].xTotalDeposit;\r\n  }\r\n\r\n  /// @notice Define the project address to receive donations and funds\r\n  /// @dev the address is set by borrow contract before setting it here\r\n  /// @param borrowAddress the address of the wining project funding in borrow contract\r\n  function setFundingProject(address borrowAddress) external onlyOwner returns(address) {\r\n    fundingProject = IBorrow(borrowAddress).receiverAddress();\r\n  }\r\n\r\n  /// @notice allow the user to send ERC20 to the stacking contract\r\n  /// @dev use of a delegate call to pass the stacking address as argument for approve function\r\n  /// @param amount the ERC20 token amount to approve for the stacking contract\r\n  function approveStacking(uint amount) external returns(bool){\r\n    (bool success, bytes memory result) = address(tokenAd).delegatecall(abi.encodeWithSignature(\"approve(address,uint256)\", address(this), amount));\r\n    return success;\r\n    }\r\n\r\n  /* function transferToStacking(address account, uint amount) internal returns(bool) {\r\n    (bool success, bytes memory result) = address(tokenAd).delegatecall(abi.encodeWithSignature(\"transferFrom(address,address,uint256)\",, stacking, amount));\r\n    return success;\r\n  } */\r\n  /// @notice make a deposit by the user in the staking contract\r\n  /// @dev set a deposit lock by computation of the deposit value with interests at the unlock date\r\n  /// and verification when calling withdrawPending\r\n  /// @param amount the desired amount to deposit by the user\r\n  function deposit (uint amount) public payable  {\r\n    require(amount > 0, \"can not deposit 0\");\r\n    uint x = updateXprice(0);\r\n    uint z = 1000000;\r\n    address account = address(msg.sender);\r\n    IERC20(tokenAd).transferFrom(account, stacking, amount);\r\n    uint depositToX = (amount.mul(z)).div(x);\r\n    user[msg.sender].xDeposit.push(depositToX);\r\n    user[msg.sender].xTotalDeposit = user[msg.sender].xTotalDeposit.add(depositToX);\r\n    uint y = updateXprice(timeLock);\r\n    uint lockedAmount =(depositToX.mul(y)).div(z);\r\n    user[msg.sender].DepositLocked.push(lockedAmount);\r\n\r\n    if (user[msg.sender].lister == false) {\r\n      adrClients.push(msg.sender);\r\n      user[msg.sender].lister = true;\r\n      user[msg.sender].withdrawPending = 0;\r\n    }\r\n\r\n    // Event validation\r\n    emit validDeposit(msg.sender, amount);\r\n    // Update of the deposit amount\r\n    totalVotingPower= totalVotingPower.add(depositToX);\r\n  }\r\n\r\n\r\n  function deleteUserDeposits(address usr, uint to, uint long) internal {\r\n        uint lastIndex = long.sub(1);\r\n        uint diff = lastIndex.sub(to);\r\n        for (uint i; i < diff ; i++) {\r\n          uint j = i.add(to).add(1);\r\n          user[usr].xDeposit[i] = user[usr].xDeposit[j];\r\n          user[usr].DepositLocked[i] = user[usr].DepositLocked[j];\r\n          }\r\n          for (uint i; i <= to ; i++) {\r\n          user[usr].xDeposit.pop();\r\n          user[usr].DepositLocked.pop();\r\n        }\r\n      }\r\n\r\n  /// @notice make a withdraw request by the user\r\n  /// @dev fetch the differents deposits eligible for withdraw\r\n  /// and delete them from the client array if withdrawn\r\n  /// @param withdrawAmount the desired amount to withdraw by the user\r\n  function wantWithdraw (uint withdrawAmount) public returns(uint){\r\n    uint x = updateXprice(0);\r\n    uint z = 1000000;\r\n    uint xWithdraw = withdrawAmount.mul(z).div(x);\r\n    require(xWithdraw <= user[msg.sender].xTotalDeposit, \"can not withdraw more than you deposited\");\r\n    uint deposit0 = (user[msg.sender].xDeposit[0]).mul(x).div(z);\r\n    require(deposit0  >= user[msg.sender].DepositLocked[0], \"the first deposit can not be unlocked now\");\r\n    uint length = (user[msg.sender].DepositLocked).length;\r\n    uint withdraw;\r\n    uint leftovers;\r\n    uint sumDeposit;\r\n    for (uint i; i < length; i++) {\r\n      sumDeposit = sumDeposit.add(user[msg.sender].DepositLocked[i]);\r\n      uint depositI = (user[msg.sender].xDeposit[i]).mul(x).div(z);\r\n      if (withdrawAmount >= sumDeposit) {\r\n        require(depositI >= user[msg.sender].DepositLocked[i],\"can not withdraw a locked deposit\");\r\n        withdraw = i;\r\n      } else if (withdrawAmount < sumDeposit && depositI >= user[msg.sender].DepositLocked[i]) {\r\n        withdraw = i;\r\n        leftovers = sumDeposit.sub(withdrawAmount);\r\n      } else {\r\n        uint overDeposit = sumDeposit.sub(user[msg.sender].DepositLocked[i]);\r\n        require (withdrawAmount <= overDeposit, \"can not withdraw from a locked deposit\");\r\n        }\r\n    }\r\n\r\n    user[msg.sender].withdrawPending = user[msg.sender].withdrawPending.add(withdrawAmount);\r\n    address usr = msg.sender;\r\n\r\n    deleteUserDeposits(usr,withdraw,length);\r\n\r\n     if (leftovers > 0) {\r\n      uint xleftovers = leftovers.mul(z).div(x);\r\n      user[msg.sender].xDeposit.push(xleftovers);\r\n      user[msg.sender].DepositLocked.push(xleftovers);\r\n      uint newLenght = user[msg.sender].xDeposit.length;\r\n      for (uint i = newLenght.sub(1); i > 0; i--) {\r\n        uint j = i.sub(1);\r\n        user[msg.sender].xDeposit[i] = user[msg.sender].xDeposit[j];\r\n        user[msg.sender].DepositLocked[i] = user[msg.sender].DepositLocked[j];\r\n      }\r\n    }\r\n\r\n    user[msg.sender].xTotalDeposit = user[msg.sender].xTotalDeposit.sub(xWithdraw);\r\n    // Global payment update\r\n    totalWithdrawalAmount = totalWithdrawalAmount.add(withdrawAmount);\r\n\r\n    IERC20(tokenAd).approve(msg.sender, withdrawAmount);\r\n\r\n    totalVotingPower= totalVotingPower.sub(xWithdraw);\r\n    // Event validation\r\n    emit authorizedWithdrawal(msg.sender, withdrawAmount);\r\n  }\r\n\r\n\r\n  /// @notice make an effective withdraw for the user by the contract owner\r\n  /// @dev fetch the differents pending withdraws from the differents user and pay them\r\n  /// @param _address the IERC20 token address in use to payback the users\r\n  function withdraw (IERC20 _address) public payable onlyOwner {\r\n    uint toPay;\r\n    uint length = adrClients.length;\r\n    uint sumWithdraw;\r\n    // Search for all customers who have requested a withdrawal\r\n    for(uint i; i < length ; i++) {\r\n      address usr =  adrClients[i];\r\n      toPay = user[usr].withdrawPending;\r\n      sumWithdraw = sumWithdraw.add(toPay);\r\n\r\n      require(sumWithdraw <= totalWithdrawalAmount, \"too much Withdraw\");\r\n\r\n      IERC20(_address).transfer(usr, toPay);\r\n      user[usr].withdrawPending = 0;\r\n    }\r\n    emit withdrawn(totalWithdrawalAmount);\r\n    // totalWithdrawalAmount update\r\n    totalWithdrawalAmount = 0;\r\n  }\r\n}\r\n",
  "sourcePath": "C:/Users/Morpheus/desktop/alyra/solipay/contracts/ProxySimple.sol",
  "compiler": {
    "name": "solc",
    "version": "0.6.11+commit.5ef660b1.Emscripten.clang"
  },
  "schemaVersion": "3.4.1",
  "updatedAt": "2021-05-11T10:37:56.259Z",
  "networkType": "ethereum",
  "devdoc": {
    "kind": "dev",
    "methods": {
      "approveStacking(uint256)": {
        "details": "use of a delegate call to pass the stacking address as argument for approve function",
        "params": {
          "amount": "the ERC20 token amount to approve for the stacking contract"
        }
      },
      "deposit(uint256)": {
        "details": "set a deposit lock by computation of the deposit value with interests at the unlock date and verification when calling withdrawPending",
        "params": {
          "amount": "the desired amount to deposit by the user"
        }
      },
      "getAdrClients()": {
        "details": "usefull as relay for sending the client addresses to a borrow.sol contractcould be useless if it is possible access directly to the contract variable",
        "returns": {
          "_0": "array of client address"
        }
      },
      "getTotalVotingPower()": {
        "details": "it represents total summed xDeposit of every client",
        "returns": {
          "_0": "big number totalVotingPower"
        }
      },
      "getUser(address)": {
        "details": "usefull as relay for sending the client properties to a borrow.sol contract",
        "params": {
          "_user": "the client address"
        },
        "returns": {
          "_0": "client object"
        }
      },
      "getUserDeposits(address)": {
        "details": "usefull as relay for sending the client total deposit in x value to a borrow.sol contract",
        "params": {
          "_user": "the client address"
        },
        "returns": {
          "_0": "client object"
        }
      },
      "owner()": {
        "details": "Returns the address of the current owner."
      },
      "renounceOwnership()": {
        "details": "Leaves the contract without owner. It will not be possible to call `onlyOwner` functions anymore. Can only be called by the current owner. NOTE: Renouncing ownership will leave the contract without an owner, thereby removing any functionality that is only available to the owner."
      },
      "setFundingProject(address)": {
        "details": "the address is set by borrow contract before setting it here",
        "params": {
          "borrowAddress": "the address of the wining project funding in borrow contract"
        }
      },
      "setStackingAddress(address)": {
        "details": "could be upgraded by using an stacking interface ?",
        "params": {
          "contractAddr": "the address of the stacking contract"
        }
      },
      "setTokenAd(address)": {
        "details": "restricted to the contract's owner",
        "params": {
          "_tokenAd": "IERC20 the token address"
        }
      },
      "transferOwnership(address)": {
        "details": "Transfers ownership of the contract to a new account (`newOwner`). Can only be called by the current owner."
      },
      "updateXprice(uint256)": {
        "details": "view function usefull for interest computation",
        "params": {
          "date": "a epoch time to add at the current time to fetch x value in the future"
        },
        "returns": {
          "x": "the value for a given date"
        }
      },
      "wantWithdraw(uint256)": {
        "details": "fetch the differents deposits eligible for withdraw and delete them from the client array if withdrawn",
        "params": {
          "withdrawAmount": "the desired amount to withdraw by the user"
        }
      },
      "withdraw(address)": {
        "details": "fetch the differents pending withdraws from the differents user and pay them",
        "params": {
          "_address": "the IERC20 token address in use to payback the users"
        }
      }
    },
    "version": 1
  },
  "userdoc": {
    "kind": "user",
    "methods": {
      "approveStacking(uint256)": {
        "notice": "allow the user to send ERC20 to the stacking contract"
      },
      "deposit(uint256)": {
        "notice": "make a deposit by the user in the staking contract"
      },
      "getAdrClients()": {
        "notice": "return the client's address aray"
      },
      "getTotalVotingPower()": {
        "notice": "return the total voting power"
      },
      "getUser(address)": {
        "notice": "return client object"
      },
      "setFundingProject(address)": {
        "notice": "Define the project address to receive donations and funds"
      },
      "setStackingAddress(address)": {
        "notice": "Define stacking contract address to send the deposit"
      },
      "setTokenAd(address)": {
        "notice": "Define IERC20 token address accepted as deposit"
      },
      "updateXprice(uint256)": {
        "notice": "fetch the value of x, give actual value if argument equal to zero"
      },
      "wantWithdraw(uint256)": {
        "notice": "make a withdraw request by the user"
      },
      "withdraw(address)": {
        "notice": "make an effective withdraw for the user by the contract owner"
      }
    },
    "version": 1
  }
}